{
	"contracts/my_second_contract.sol": {
		"counter": {
			"abi": [
				{
					"inputs": [],
					"name": "count",
					"outputs": [
						{
							"internalType": "int256",
							"name": "",
							"type": "int256"
						}
					],
					"stateMutability": "view",
					"type": "function"
				},
				{
					"inputs": [],
					"name": "decrement",
					"outputs": [],
					"stateMutability": "nonpayable",
					"type": "function"
				},
				{
					"inputs": [],
					"name": "increment",
					"outputs": [],
					"stateMutability": "nonpayable",
					"type": "function"
				}
			],
			"devdoc": {
				"kind": "dev",
				"methods": {},
				"version": 1
			},
			"evm": {
				"assembly": "    /* \"contracts/my_second_contract.sol\":60:232  contract counter {... */\n  mstore(0x40, 0x80)\n  callvalue\n  dup1\n  iszero\n  tag_1\n  jumpi\n  0x00\n  dup1\n  revert\ntag_1:\n  pop\n  dataSize(sub_0)\n  dup1\n  dataOffset(sub_0)\n  0x00\n  codecopy\n  0x00\n  return\nstop\n\nsub_0: assembly {\n        /* \"contracts/my_second_contract.sol\":60:232  contract counter {... */\n      mstore(0x40, 0x80)\n      callvalue\n      dup1\n      iszero\n      tag_1\n      jumpi\n      0x00\n      dup1\n      revert\n    tag_1:\n      pop\n      jumpi(tag_2, lt(calldatasize, 0x04))\n      shr(0xe0, calldataload(0x00))\n      dup1\n      0x06661abd\n      eq\n      tag_3\n      jumpi\n      dup1\n      0x2baeceb7\n      eq\n      tag_4\n      jumpi\n      dup1\n      0xd09de08a\n      eq\n      tag_5\n      jumpi\n    tag_2:\n      0x00\n      dup1\n      revert\n        /* \"contracts/my_second_contract.sol\":84:100  int public count */\n    tag_3:\n      tag_6\n      tag_7\n      jump\t// in\n    tag_6:\n      mload(0x40)\n      tag_8\n      swap2\n      swap1\n      tag_9\n      jump\t// in\n    tag_8:\n      mload(0x40)\n      dup1\n      swap2\n      sub\n      swap1\n      return\n        /* \"contracts/my_second_contract.sol\":168:221  function decrement() public{... */\n    tag_4:\n      tag_10\n      tag_11\n      jump\t// in\n    tag_10:\n      stop\n        /* \"contracts/my_second_contract.sol\":109:162  function increment() public{... */\n    tag_5:\n      tag_12\n      tag_13\n      jump\t// in\n    tag_12:\n      stop\n        /* \"contracts/my_second_contract.sol\":84:100  int public count */\n    tag_7:\n      sload(0x00)\n      dup2\n      jump\t// out\n        /* \"contracts/my_second_contract.sol\":168:221  function decrement() public{... */\n    tag_11:\n        /* \"contracts/my_second_contract.sol\":206:211  count */\n      0x00\n      dup1\n        /* \"contracts/my_second_contract.sol\":206:213  count-- */\n      dup2\n      sload\n      dup1\n      swap3\n      swap2\n      swap1\n      tag_15\n      swap1\n      tag_16\n      jump\t// in\n    tag_15:\n      swap2\n      swap1\n      pop\n      sstore\n      pop\n        /* \"contracts/my_second_contract.sol\":168:221  function decrement() public{... */\n      jump\t// out\n        /* \"contracts/my_second_contract.sol\":109:162  function increment() public{... */\n    tag_13:\n        /* \"contracts/my_second_contract.sol\":147:152  count */\n      0x00\n      dup1\n        /* \"contracts/my_second_contract.sol\":147:154  count++ */\n      dup2\n      sload\n      dup1\n      swap3\n      swap2\n      swap1\n      tag_18\n      swap1\n      tag_19\n      jump\t// in\n    tag_18:\n      swap2\n      swap1\n      pop\n      sstore\n      pop\n        /* \"contracts/my_second_contract.sol\":109:162  function increment() public{... */\n      jump\t// out\n        /* \"#utility.yul\":7:83   */\n    tag_20:\n        /* \"#utility.yul\":43:50   */\n      0x00\n        /* \"#utility.yul\":72:77   */\n      dup2\n        /* \"#utility.yul\":61:77   */\n      swap1\n      pop\n        /* \"#utility.yul\":7:83   */\n      swap2\n      swap1\n      pop\n      jump\t// out\n        /* \"#utility.yul\":89:204   */\n    tag_21:\n        /* \"#utility.yul\":174:197   */\n      tag_26\n        /* \"#utility.yul\":191:196   */\n      dup2\n        /* \"#utility.yul\":174:197   */\n      tag_20\n      jump\t// in\n    tag_26:\n        /* \"#utility.yul\":169:172   */\n      dup3\n        /* \"#utility.yul\":162:198   */\n      mstore\n        /* \"#utility.yul\":89:204   */\n      pop\n      pop\n      jump\t// out\n        /* \"#utility.yul\":210:428   */\n    tag_9:\n        /* \"#utility.yul\":301:305   */\n      0x00\n        /* \"#utility.yul\":339:341   */\n      0x20\n        /* \"#utility.yul\":328:337   */\n      dup3\n        /* \"#utility.yul\":324:342   */\n      add\n        /* \"#utility.yul\":316:342   */\n      swap1\n      pop\n        /* \"#utility.yul\":352:421   */\n      tag_28\n        /* \"#utility.yul\":418:419   */\n      0x00\n        /* \"#utility.yul\":407:416   */\n      dup4\n        /* \"#utility.yul\":403:420   */\n      add\n        /* \"#utility.yul\":394:400   */\n      dup5\n        /* \"#utility.yul\":352:421   */\n      tag_21\n      jump\t// in\n    tag_28:\n        /* \"#utility.yul\":210:428   */\n      swap3\n      swap2\n      pop\n      pop\n      jump\t// out\n        /* \"#utility.yul\":434:614   */\n    tag_22:\n        /* \"#utility.yul\":482:559   */\n      0x4e487b7100000000000000000000000000000000000000000000000000000000\n        /* \"#utility.yul\":479:480   */\n      0x00\n        /* \"#utility.yul\":472:560   */\n      mstore\n        /* \"#utility.yul\":579:583   */\n      0x11\n        /* \"#utility.yul\":576:577   */\n      0x04\n        /* \"#utility.yul\":569:584   */\n      mstore\n        /* \"#utility.yul\":603:607   */\n      0x24\n        /* \"#utility.yul\":600:601   */\n      0x00\n        /* \"#utility.yul\":593:608   */\n      revert\n        /* \"#utility.yul\":620:851   */\n    tag_16:\n        /* \"#utility.yul\":658:661   */\n      0x00\n        /* \"#utility.yul\":681:704   */\n      tag_31\n        /* \"#utility.yul\":698:703   */\n      dup3\n        /* \"#utility.yul\":681:704   */\n      tag_20\n      jump\t// in\n    tag_31:\n        /* \"#utility.yul\":672:704   */\n      swap2\n      pop\n        /* \"#utility.yul\":726:792   */\n      0x8000000000000000000000000000000000000000000000000000000000000000\n        /* \"#utility.yul\":719:724   */\n      dup3\n        /* \"#utility.yul\":716:793   */\n      sub\n        /* \"#utility.yul\":713:816   */\n      tag_32\n      jumpi\n        /* \"#utility.yul\":796:814   */\n      tag_33\n      tag_22\n      jump\t// in\n    tag_33:\n        /* \"#utility.yul\":713:816   */\n    tag_32:\n        /* \"#utility.yul\":843:844   */\n      0x01\n        /* \"#utility.yul\":836:841   */\n      dup3\n        /* \"#utility.yul\":832:845   */\n      sub\n        /* \"#utility.yul\":825:845   */\n      swap1\n      pop\n        /* \"#utility.yul\":620:851   */\n      swap2\n      swap1\n      pop\n      jump\t// out\n        /* \"#utility.yul\":857:1088   */\n    tag_19:\n        /* \"#utility.yul\":895:898   */\n      0x00\n        /* \"#utility.yul\":918:941   */\n      tag_35\n        /* \"#utility.yul\":935:940   */\n      dup3\n        /* \"#utility.yul\":918:941   */\n      tag_20\n      jump\t// in\n    tag_35:\n        /* \"#utility.yul\":909:941   */\n      swap2\n      pop\n        /* \"#utility.yul\":963:1029   */\n      0x7fffffffffffffffffffffffffffffffffffffffffffffffffffffffffffffff\n        /* \"#utility.yul\":956:961   */\n      dup3\n        /* \"#utility.yul\":953:1030   */\n      sub\n        /* \"#utility.yul\":950:1053   */\n      tag_36\n      jumpi\n        /* \"#utility.yul\":1033:1051   */\n      tag_37\n      tag_22\n      jump\t// in\n    tag_37:\n        /* \"#utility.yul\":950:1053   */\n    tag_36:\n        /* \"#utility.yul\":1080:1081   */\n      0x01\n        /* \"#utility.yul\":1073:1078   */\n      dup3\n        /* \"#utility.yul\":1069:1082   */\n      add\n        /* \"#utility.yul\":1062:1082   */\n      swap1\n      pop\n        /* \"#utility.yul\":857:1088   */\n      swap2\n      swap1\n      pop\n      jump\t// out\n\n    auxdata: 0xa2646970667358221220b095e92d9a8bfe930f34ef9275dd3e52cf8e0514f3f88479ea63dfc8ca1b54a564736f6c63430008120033\n}\n",
				"bytecode": {
					"linkReferences": {},
					"object": "608060405234801561001057600080fd5b506101d9806100206000396000f3fe608060405234801561001057600080fd5b50600436106100415760003560e01c806306661abd146100465780632baeceb714610064578063d09de08a1461006e575b600080fd5b61004e610078565b60405161005b91906100c9565b60405180910390f35b61006c61007e565b005b610076610097565b005b60005481565b60008081548092919061009090610113565b9190505550565b6000808154809291906100a99061015b565b9190505550565b6000819050919050565b6100c3816100b0565b82525050565b60006020820190506100de60008301846100ba565b92915050565b7f4e487b7100000000000000000000000000000000000000000000000000000000600052601160045260246000fd5b600061011e826100b0565b91507f800000000000000000000000000000000000000000000000000000000000000082036101505761014f6100e4565b5b600182039050919050565b6000610166826100b0565b91507f7fffffffffffffffffffffffffffffffffffffffffffffffffffffffffffffff8203610198576101976100e4565b5b60018201905091905056fea2646970667358221220b095e92d9a8bfe930f34ef9275dd3e52cf8e0514f3f88479ea63dfc8ca1b54a564736f6c63430008120033",
					"opcodes": "PUSH1 0x80 PUSH1 0x40 MSTORE CALLVALUE DUP1 ISZERO PUSH2 0x10 JUMPI PUSH1 0x0 DUP1 REVERT JUMPDEST POP PUSH2 0x1D9 DUP1 PUSH2 0x20 PUSH1 0x0 CODECOPY PUSH1 0x0 RETURN INVALID PUSH1 0x80 PUSH1 0x40 MSTORE CALLVALUE DUP1 ISZERO PUSH2 0x10 JUMPI PUSH1 0x0 DUP1 REVERT JUMPDEST POP PUSH1 0x4 CALLDATASIZE LT PUSH2 0x41 JUMPI PUSH1 0x0 CALLDATALOAD PUSH1 0xE0 SHR DUP1 PUSH4 0x6661ABD EQ PUSH2 0x46 JUMPI DUP1 PUSH4 0x2BAECEB7 EQ PUSH2 0x64 JUMPI DUP1 PUSH4 0xD09DE08A EQ PUSH2 0x6E JUMPI JUMPDEST PUSH1 0x0 DUP1 REVERT JUMPDEST PUSH2 0x4E PUSH2 0x78 JUMP JUMPDEST PUSH1 0x40 MLOAD PUSH2 0x5B SWAP2 SWAP1 PUSH2 0xC9 JUMP JUMPDEST PUSH1 0x40 MLOAD DUP1 SWAP2 SUB SWAP1 RETURN JUMPDEST PUSH2 0x6C PUSH2 0x7E JUMP JUMPDEST STOP JUMPDEST PUSH2 0x76 PUSH2 0x97 JUMP JUMPDEST STOP JUMPDEST PUSH1 0x0 SLOAD DUP2 JUMP JUMPDEST PUSH1 0x0 DUP1 DUP2 SLOAD DUP1 SWAP3 SWAP2 SWAP1 PUSH2 0x90 SWAP1 PUSH2 0x113 JUMP JUMPDEST SWAP2 SWAP1 POP SSTORE POP JUMP JUMPDEST PUSH1 0x0 DUP1 DUP2 SLOAD DUP1 SWAP3 SWAP2 SWAP1 PUSH2 0xA9 SWAP1 PUSH2 0x15B JUMP JUMPDEST SWAP2 SWAP1 POP SSTORE POP JUMP JUMPDEST PUSH1 0x0 DUP2 SWAP1 POP SWAP2 SWAP1 POP JUMP JUMPDEST PUSH2 0xC3 DUP2 PUSH2 0xB0 JUMP JUMPDEST DUP3 MSTORE POP POP JUMP JUMPDEST PUSH1 0x0 PUSH1 0x20 DUP3 ADD SWAP1 POP PUSH2 0xDE PUSH1 0x0 DUP4 ADD DUP5 PUSH2 0xBA JUMP JUMPDEST SWAP3 SWAP2 POP POP JUMP JUMPDEST PUSH32 0x4E487B7100000000000000000000000000000000000000000000000000000000 PUSH1 0x0 MSTORE PUSH1 0x11 PUSH1 0x4 MSTORE PUSH1 0x24 PUSH1 0x0 REVERT JUMPDEST PUSH1 0x0 PUSH2 0x11E DUP3 PUSH2 0xB0 JUMP JUMPDEST SWAP2 POP PUSH32 0x8000000000000000000000000000000000000000000000000000000000000000 DUP3 SUB PUSH2 0x150 JUMPI PUSH2 0x14F PUSH2 0xE4 JUMP JUMPDEST JUMPDEST PUSH1 0x1 DUP3 SUB SWAP1 POP SWAP2 SWAP1 POP JUMP JUMPDEST PUSH1 0x0 PUSH2 0x166 DUP3 PUSH2 0xB0 JUMP JUMPDEST SWAP2 POP PUSH32 0x7FFFFFFFFFFFFFFFFFFFFFFFFFFFFFFFFFFFFFFFFFFFFFFFFFFFFFFFFFFFFFFF DUP3 SUB PUSH2 0x198 JUMPI PUSH2 0x197 PUSH2 0xE4 JUMP JUMPDEST JUMPDEST PUSH1 0x1 DUP3 ADD SWAP1 POP SWAP2 SWAP1 POP JUMP INVALID LOG2 PUSH5 0x6970667358 0x22 SLT KECCAK256 0xB0 SWAP6 0xE9 0x2D SWAP11 DUP12 INVALID SWAP4 0xF CALLVALUE 0xEF SWAP3 PUSH22 0xDD3E52CF8E0514F3F88479EA63DFC8CA1B54A564736F PUSH13 0x63430008120033000000000000 "
				},
				"gasEstimates": {
					"creation": {
						"codeDepositCost": "94600",
						"executionCost": "141",
						"totalCost": "94741"
					},
					"external": {
						"count()": "2407",
						"decrement()": "24501",
						"increment()": "24523"
					}
				},
				"methodIdentifiers": {
					"count()": "06661abd",
					"decrement()": "2baeceb7",
					"increment()": "d09de08a"
				}
			},
			"storageLayout": {
				"storage": [
					{
						"astId": 3,
						"contract": "contracts/my_second_contract.sol:counter",
						"label": "count",
						"offset": 0,
						"slot": "0",
						"type": "t_int256"
					}
				],
				"types": {
					"t_int256": {
						"encoding": "inplace",
						"label": "int256",
						"numberOfBytes": "32"
					}
				}
			},
			"userdoc": {
				"kind": "user",
				"methods": {},
				"version": 1
			}
		}
	}
}